{
  "_format": "hh-sol-artifact-1",
  "contractName": "MyEpicNFT",
  "sourceName": "contracts/MyEpicNFT.sol",
  "abi": [
    {
      "inputs": [],
      "stateMutability": "nonpayable",
      "type": "constructor"
    },
    {
      "anonymous": false,
      "inputs": [
        {
          "indexed": true,
          "internalType": "address",
          "name": "owner",
          "type": "address"
        },
        {
          "indexed": true,
          "internalType": "address",
          "name": "approved",
          "type": "address"
        },
        {
          "indexed": true,
          "internalType": "uint256",
          "name": "tokenId",
          "type": "uint256"
        }
      ],
      "name": "Approval",
      "type": "event"
    },
    {
      "anonymous": false,
      "inputs": [
        {
          "indexed": true,
          "internalType": "address",
          "name": "owner",
          "type": "address"
        },
        {
          "indexed": true,
          "internalType": "address",
          "name": "operator",
          "type": "address"
        },
        {
          "indexed": false,
          "internalType": "bool",
          "name": "approved",
          "type": "bool"
        }
      ],
      "name": "ApprovalForAll",
      "type": "event"
    },
    {
      "anonymous": false,
      "inputs": [
        {
          "indexed": false,
          "internalType": "address",
          "name": "sender",
          "type": "address"
        },
        {
          "indexed": false,
          "internalType": "uint256",
          "name": "tokenId",
          "type": "uint256"
        }
      ],
      "name": "NewEpicNFTMinted",
      "type": "event"
    },
    {
      "anonymous": false,
      "inputs": [
        {
          "indexed": true,
          "internalType": "address",
          "name": "from",
          "type": "address"
        },
        {
          "indexed": true,
          "internalType": "address",
          "name": "to",
          "type": "address"
        },
        {
          "indexed": true,
          "internalType": "uint256",
          "name": "tokenId",
          "type": "uint256"
        }
      ],
      "name": "Transfer",
      "type": "event"
    },
    {
      "inputs": [],
      "name": "MakeAnEpicNFT",
      "outputs": [],
      "stateMutability": "nonpayable",
      "type": "function"
    },
    {
      "inputs": [
        {
          "internalType": "address",
          "name": "to",
          "type": "address"
        },
        {
          "internalType": "uint256",
          "name": "tokenId",
          "type": "uint256"
        }
      ],
      "name": "approve",
      "outputs": [],
      "stateMutability": "nonpayable",
      "type": "function"
    },
    {
      "inputs": [],
      "name": "availableCount",
      "outputs": [
        {
          "internalType": "uint256",
          "name": "",
          "type": "uint256"
        }
      ],
      "stateMutability": "view",
      "type": "function"
    },
    {
      "inputs": [
        {
          "internalType": "address",
          "name": "owner",
          "type": "address"
        }
      ],
      "name": "balanceOf",
      "outputs": [
        {
          "internalType": "uint256",
          "name": "",
          "type": "uint256"
        }
      ],
      "stateMutability": "view",
      "type": "function"
    },
    {
      "inputs": [
        {
          "internalType": "uint256",
          "name": "tokenId",
          "type": "uint256"
        }
      ],
      "name": "getApproved",
      "outputs": [
        {
          "internalType": "address",
          "name": "",
          "type": "address"
        }
      ],
      "stateMutability": "view",
      "type": "function"
    },
    {
      "inputs": [
        {
          "internalType": "address",
          "name": "owner",
          "type": "address"
        },
        {
          "internalType": "address",
          "name": "operator",
          "type": "address"
        }
      ],
      "name": "isApprovedForAll",
      "outputs": [
        {
          "internalType": "bool",
          "name": "",
          "type": "bool"
        }
      ],
      "stateMutability": "view",
      "type": "function"
    },
    {
      "inputs": [],
      "name": "name",
      "outputs": [
        {
          "internalType": "string",
          "name": "",
          "type": "string"
        }
      ],
      "stateMutability": "view",
      "type": "function"
    },
    {
      "inputs": [
        {
          "internalType": "uint256",
          "name": "tokenId",
          "type": "uint256"
        }
      ],
      "name": "ownerOf",
      "outputs": [
        {
          "internalType": "address",
          "name": "",
          "type": "address"
        }
      ],
      "stateMutability": "view",
      "type": "function"
    },
    {
      "inputs": [
        {
          "internalType": "uint256",
          "name": "tokenId",
          "type": "uint256"
        }
      ],
      "name": "pickRandomFirstWord",
      "outputs": [
        {
          "internalType": "string",
          "name": "",
          "type": "string"
        }
      ],
      "stateMutability": "view",
      "type": "function"
    },
    {
      "inputs": [
        {
          "internalType": "uint256",
          "name": "tokenId",
          "type": "uint256"
        }
      ],
      "name": "pickRandomSecondWord",
      "outputs": [
        {
          "internalType": "string",
          "name": "",
          "type": "string"
        }
      ],
      "stateMutability": "view",
      "type": "function"
    },
    {
      "inputs": [
        {
          "internalType": "uint256",
          "name": "tokenId",
          "type": "uint256"
        }
      ],
      "name": "pickRandomThirdWord",
      "outputs": [
        {
          "internalType": "string",
          "name": "",
          "type": "string"
        }
      ],
      "stateMutability": "view",
      "type": "function"
    },
    {
      "inputs": [
        {
          "internalType": "address",
          "name": "from",
          "type": "address"
        },
        {
          "internalType": "address",
          "name": "to",
          "type": "address"
        },
        {
          "internalType": "uint256",
          "name": "tokenId",
          "type": "uint256"
        }
      ],
      "name": "safeTransferFrom",
      "outputs": [],
      "stateMutability": "nonpayable",
      "type": "function"
    },
    {
      "inputs": [
        {
          "internalType": "address",
          "name": "from",
          "type": "address"
        },
        {
          "internalType": "address",
          "name": "to",
          "type": "address"
        },
        {
          "internalType": "uint256",
          "name": "tokenId",
          "type": "uint256"
        },
        {
          "internalType": "bytes",
          "name": "_data",
          "type": "bytes"
        }
      ],
      "name": "safeTransferFrom",
      "outputs": [],
      "stateMutability": "nonpayable",
      "type": "function"
    },
    {
      "inputs": [
        {
          "internalType": "address",
          "name": "operator",
          "type": "address"
        },
        {
          "internalType": "bool",
          "name": "approved",
          "type": "bool"
        }
      ],
      "name": "setApprovalForAll",
      "outputs": [],
      "stateMutability": "nonpayable",
      "type": "function"
    },
    {
      "inputs": [
        {
          "internalType": "bytes4",
          "name": "interfaceId",
          "type": "bytes4"
        }
      ],
      "name": "supportsInterface",
      "outputs": [
        {
          "internalType": "bool",
          "name": "",
          "type": "bool"
        }
      ],
      "stateMutability": "view",
      "type": "function"
    },
    {
      "inputs": [],
      "name": "symbol",
      "outputs": [
        {
          "internalType": "string",
          "name": "",
          "type": "string"
        }
      ],
      "stateMutability": "view",
      "type": "function"
    },
    {
      "inputs": [
        {
          "internalType": "uint256",
          "name": "tokenId",
          "type": "uint256"
        }
      ],
      "name": "tokenURI",
      "outputs": [
        {
          "internalType": "string",
          "name": "",
          "type": "string"
        }
      ],
      "stateMutability": "view",
      "type": "function"
    },
    {
      "inputs": [
        {
          "internalType": "address",
          "name": "from",
          "type": "address"
        },
        {
          "internalType": "address",
          "name": "to",
          "type": "address"
        },
        {
          "internalType": "uint256",
          "name": "tokenId",
          "type": "uint256"
        }
      ],
      "name": "transferFrom",
      "outputs": [],
      "stateMutability": "nonpayable",
      "type": "function"
    }
  ],
  "bytecode": "0x608060405260405180610160016040528061012f8152602001620042de61012f9139600890805190602001906200003892919062000683565b506040518060c001604052806040518060400160405280600681526020017f4d6f6e6b6579000000000000000000000000000000000000000000000000000081525081526020016040518060400160405280600381526020017f436174000000000000000000000000000000000000000000000000000000000081525081526020016040518060400160405280600681526020017f447261676f6e000000000000000000000000000000000000000000000000000081525081526020016040518060400160405280600781526020017f436869636b656e0000000000000000000000000000000000000000000000000081525081526020016040518060400160405280600381526020017f526174000000000000000000000000000000000000000000000000000000000081525081526020016040518060400160405280600281526020017f4f780000000000000000000000000000000000000000000000000000000000008152508152506009906006620001b692919062000714565b506040518060c001604052806040518060400160405280600581526020017f4c6f76657300000000000000000000000000000000000000000000000000000081525081526020016040518060400160405280600581526020017f486174657300000000000000000000000000000000000000000000000000000081525081526020016040518060400160405280600681526020017f536d656c6c73000000000000000000000000000000000000000000000000000081525081526020016040518060400160405280600481526020017f536565730000000000000000000000000000000000000000000000000000000081525081526020016040518060400160405280600581526020017f4665656c7300000000000000000000000000000000000000000000000000000081525081526020016040518060400160405280600581526020017f4865617273000000000000000000000000000000000000000000000000000000815250815250600a9060066200033492919062000714565b506040518060c001604052806040518060400160405280600981526020017f53706f6e6765426f62000000000000000000000000000000000000000000000081525081526020016040518060400160405280600781526020017f50696b616368750000000000000000000000000000000000000000000000000081525081526020016040518060400160405280600681526020017f4e617275746f000000000000000000000000000000000000000000000000000081525081526020016040518060400160405280600781526020017f54616e6a69726f0000000000000000000000000000000000000000000000000081525081526020016040518060400160405280600681526020017f536173756b65000000000000000000000000000000000000000000000000000081525081526020016040518060400160405280600681526020017f4974616368690000000000000000000000000000000000000000000000000000815250815250600b906006620004b292919062000714565b506032600c55348015620004c557600080fd5b506040518060400160405280600c81526020017f4e6f7374616c6769614e465400000000000000000000000000000000000000008152506040518060400160405280600881526020017f4d454d4f5249455300000000000000000000000000000000000000000000000081525081600090805190602001906200054a92919062000683565b5080600190805190602001906200056392919062000683565b505050620005b16040518060400160405280601d81526020017f54686973206973206d79204e465420636f6e74726163742e20576f6168000000815250620005b760201b620012d51760201c565b62000935565b6200065781604051602401620005ce919062000849565b6040516020818303038152906040527f41304fac000000000000000000000000000000000000000000000000000000007bffffffffffffffffffffffffffffffffffffffffffffffffffffffff19166020820180517bffffffffffffffffffffffffffffffffffffffffffffffffffffffff83818316178352505050506200065a60201b60201c565b50565b60008151905060006a636f6e736f6c652e6c6f679050602083016000808483855afa5050505050565b8280546200069190620008bf565b90600052602060002090601f016020900481019282620006b5576000855562000701565b82601f10620006d057805160ff191683800117855562000701565b8280016001018555821562000701579182015b8281111562000700578251825591602001919060010190620006e3565b5b5090506200071091906200077b565b5090565b82805482825590600052602060002090810192821562000768579160200282015b82811115620007675782518290805190602001906200075692919062000683565b509160200191906001019062000735565b5b5090506200077791906200079a565b5090565b5b80821115620007965760008160009055506001016200077c565b5090565b5b80821115620007be5760008181620007b49190620007c2565b506001016200079b565b5090565b508054620007d090620008bf565b6000825580601f10620007e4575062000805565b601f0160209004906000526020600020908101906200080491906200077b565b5b50565b600062000815826200086d565b62000821818562000878565b93506200083381856020860162000889565b6200083e8162000924565b840191505092915050565b6000602082019050818103600083015262000865818462000808565b905092915050565b600081519050919050565b600082825260208201905092915050565b60005b83811015620008a95780820151818401526020810190506200088c565b83811115620008b9576000848401525b50505050565b60006002820490506001821680620008d857607f821691505b60208210811415620008ef57620008ee620008f5565b5b50919050565b7f4e487b7100000000000000000000000000000000000000000000000000000000600052602260045260246000fd5b6000601f19601f8301169050919050565b61399980620009456000396000f3fe608060405234801561001057600080fd5b50600436106101165760003560e01c806395d89b41116100a2578063b88d4fde11610071578063b88d4fde14610305578063c575757a14610321578063c87b56dd14610351578063e985e9c514610381578063e9fc53ec146103b157610116565b806395d89b411461027d5780639e05c1181461029b578063a22cb465146102b9578063b187301f146102d557610116565b806323b872dd116100e957806323b872dd146101b55780632de38d68146101d157806342842e0e146102015780636352211e1461021d57806370a082311461024d57610116565b806301ffc9a71461011b57806306fdde031461014b578063081812fc14610169578063095ea7b314610199575b600080fd5b61013560048036038101906101309190612568565b6103bb565b60405161014291906131ca565b60405180910390f35b61015361049d565b60405161016091906131e5565b60405180910390f35b610183600480360381019061017e91906125ba565b61052f565b604051610190919061313a565b60405180910390f35b6101b360048036038101906101ae919061252c565b6105b4565b005b6101cf60048036038101906101ca9190612426565b6106cc565b005b6101eb60048036038101906101e691906125ba565b61072c565b6040516101f891906131e5565b60405180910390f35b61021b60048036038101906102169190612426565b61084a565b005b610237600480360381019061023291906125ba565b61086a565b604051610244919061313a565b60405180910390f35b610267600480360381019061026291906123c1565b61091c565b6040516102749190613465565b60405180910390f35b6102856109d4565b60405161029291906131e5565b60405180910390f35b6102a3610a66565b6040516102b09190613465565b60405180910390f35b6102d360048036038101906102ce91906124f0565b610a6c565b005b6102ef60048036038101906102ea91906125ba565b610bed565b6040516102fc91906131e5565b60405180910390f35b61031f600480360381019061031a9190612475565b610d0b565b005b61033b600480360381019061033691906125ba565b610d6d565b60405161034891906131e5565b60405180910390f35b61036b600480360381019061036691906125ba565b610e8b565b60405161037891906131e5565b60405180910390f35b61039b600480360381019061039691906123ea565b610fdd565b6040516103a891906131ca565b60405180910390f35b6103b9611071565b005b60007f80ac58cd000000000000000000000000000000000000000000000000000000007bffffffffffffffffffffffffffffffffffffffffffffffffffffffff1916827bffffffffffffffffffffffffffffffffffffffffffffffffffffffff1916148061048657507f5b5e139f000000000000000000000000000000000000000000000000000000007bffffffffffffffffffffffffffffffffffffffffffffffffffffffff1916827bffffffffffffffffffffffffffffffffffffffffffffffffffffffff1916145b8061049657506104958261136e565b5b9050919050565b6060600080546104ac90613704565b80601f01602080910402602001604051908101604052809291908181526020018280546104d890613704565b80156105255780601f106104fa57610100808354040283529160200191610525565b820191906000526020600020905b81548152906001019060200180831161050857829003601f168201915b5050505050905090565b600061053a826113d8565b610579576040517f08c379a0000000000000000000000000000000000000000000000000000000008152600401610570906133a5565b60405180910390fd5b6004600083815260200190815260200160002060009054906101000a900473ffffffffffffffffffffffffffffffffffffffff169050919050565b60006105bf8261086a565b90508073ffffffffffffffffffffffffffffffffffffffff168373ffffffffffffffffffffffffffffffffffffffff161415610630576040517f08c379a000000000000000000000000000000000000000000000000000000000815260040161062790613405565b60405180910390fd5b8073ffffffffffffffffffffffffffffffffffffffff1661064f611444565b73ffffffffffffffffffffffffffffffffffffffff16148061067e575061067d81610678611444565b610fdd565b5b6106bd576040517f08c379a00000000000000000000000000000000000000000000000000000000081526004016106b4906132e5565b60405180910390fd5b6106c7838361144c565b505050565b6106dd6106d7611444565b82611505565b61071c576040517f08c379a000000000000000000000000000000000000000000000000000000000815260040161071390613425565b60405180910390fd5b6107278383836115e3565b505050565b6060600061076061073c8461183f565b60405160200161074c91906130b1565b6040516020818303038152906040526119ec565b905060098054905081610773919061377f565b9050600981815481106107af577f4e487b7100000000000000000000000000000000000000000000000000000000600052603260045260246000fd5b9060005260206000200180546107c490613704565b80601f01602080910402602001604051908101604052809291908181526020018280546107f090613704565b801561083d5780601f106108125761010080835404028352916020019161083d565b820191906000526020600020905b81548152906001019060200180831161082057829003601f168201915b5050505050915050919050565b61086583838360405180602001604052806000815250610d0b565b505050565b6000806002600084815260200190815260200160002060009054906101000a900473ffffffffffffffffffffffffffffffffffffffff169050600073ffffffffffffffffffffffffffffffffffffffff168173ffffffffffffffffffffffffffffffffffffffff161415610913576040517f08c379a000000000000000000000000000000000000000000000000000000000815260040161090a90613325565b60405180910390fd5b80915050919050565b60008073ffffffffffffffffffffffffffffffffffffffff168273ffffffffffffffffffffffffffffffffffffffff16141561098d576040517f08c379a000000000000000000000000000000000000000000000000000000000815260040161098490613305565b60405180910390fd5b600360008373ffffffffffffffffffffffffffffffffffffffff1673ffffffffffffffffffffffffffffffffffffffff168152602001908152602001600020549050919050565b6060600180546109e390613704565b80601f0160208091040260200160405190810160405280929190818152602001828054610a0f90613704565b8015610a5c5780601f10610a3157610100808354040283529160200191610a5c565b820191906000526020600020905b815481529060010190602001808311610a3f57829003601f168201915b5050505050905090565b600c5481565b610a74611444565b73ffffffffffffffffffffffffffffffffffffffff168273ffffffffffffffffffffffffffffffffffffffff161415610ae2576040517f08c379a0000000000000000000000000000000000000000000000000000000008152600401610ad9906132a5565b60405180910390fd5b8060056000610aef611444565b73ffffffffffffffffffffffffffffffffffffffff1673ffffffffffffffffffffffffffffffffffffffff16815260200190815260200160002060008473ffffffffffffffffffffffffffffffffffffffff1673ffffffffffffffffffffffffffffffffffffffff16815260200190815260200160002060006101000a81548160ff0219169083151502179055508173ffffffffffffffffffffffffffffffffffffffff16610b9c611444565b73ffffffffffffffffffffffffffffffffffffffff167f17307eab39ab6107e8899845ad3d59bd9653f200f220920489ca2b5937696c3183604051610be191906131ca565b60405180910390a35050565b60606000610c21610bfd8461183f565b604051602001610c0d919061308f565b6040516020818303038152906040526119ec565b9050600a8054905081610c34919061377f565b9050600a8181548110610c70577f4e487b7100000000000000000000000000000000000000000000000000000000600052603260045260246000fd5b906000526020600020018054610c8590613704565b80601f0160208091040260200160405190810160405280929190818152602001828054610cb190613704565b8015610cfe5780601f10610cd357610100808354040283529160200191610cfe565b820191906000526020600020905b815481529060010190602001808311610ce157829003601f168201915b5050505050915050919050565b610d1c610d16611444565b83611505565b610d5b576040517f08c379a0000000000000000000000000000000000000000000000000000000008152600401610d5290613425565b60405180910390fd5b610d6784848484611a1f565b50505050565b60606000610da1610d7d8461183f565b604051602001610d8d919061306d565b6040516020818303038152906040526119ec565b9050600b8054905081610db4919061377f565b9050600b8181548110610df0577f4e487b7100000000000000000000000000000000000000000000000000000000600052603260045260246000fd5b906000526020600020018054610e0590613704565b80601f0160208091040260200160405190810160405280929190818152602001828054610e3190613704565b8015610e7e5780601f10610e5357610100808354040283529160200191610e7e565b820191906000526020600020905b815481529060010190602001808311610e6157829003601f168201915b5050505050915050919050565b6060610e96826113d8565b610ed5576040517f08c379a0000000000000000000000000000000000000000000000000000000008152600401610ecc90613385565b60405180910390fd5b6000600660008481526020019081526020016000208054610ef590613704565b80601f0160208091040260200160405190810160405280929190818152602001828054610f2190613704565b8015610f6e5780601f10610f4357610100808354040283529160200191610f6e565b820191906000526020600020905b815481529060010190602001808311610f5157829003601f168201915b505050505090506000610f7f611a7b565b9050600081511415610f95578192505050610fd8565b600082511115610fca578082604051602001610fb2929190612fe9565b60405160208183030381529060405292505050610fd8565b610fd384611a92565b925050505b919050565b6000600560008473ffffffffffffffffffffffffffffffffffffffff1673ffffffffffffffffffffffffffffffffffffffff16815260200190815260200160002060008373ffffffffffffffffffffffffffffffffffffffff1673ffffffffffffffffffffffffffffffffffffffff16815260200190815260200160002060009054906101000a900460ff16905092915050565b6000600c54116110b6576040517f08c379a00000000000000000000000000000000000000000000000000000000081526004016110ad90613445565b60405180910390fd5b6001600c546110c5919061361a565b600c8190555060006110d76007611b39565b905060006110e48261072c565b905060006110f183610bed565b905060006110fe84610d6d565b905060008383836040516020016111179392919061300d565b6040516020818303038152906040529050600060088260405160200161113e92919061303e565b604051602081830303815290604052905060006111838361115e84611b47565b60405160200161116f9291906130d3565b604051602081830303815290604052611b47565b90506000816040516020016111989190613118565b60405160208183030381529060405290506111e76040518060400160405280601581526020017f0a2d2d2d2d2d2d2d2d2d2d2d2d2d2d2d2d2d2d2d2d00000000000000000000008152506112d5565b6111f0816112d5565b61122e6040518060400160405280601581526020017f2d2d2d2d2d2d2d2d2d2d2d2d2d2d2d2d2d2d2d2d0a00000000000000000000008152506112d5565b6112383389611d05565b6112428882611d23565b61126560405180606001604052806025815260200161393f602591398933611d97565b61126f6007611e36565b6112926040518060600160405280602581526020016138da602591398933611d97565b7febb98688741ffa4c7589bf325de30cf7becb63de567842e1ccdb6cb949fdc82c33896040516112c39291906131a1565b60405180910390a15050505050505050565b61136b816040516024016112e991906131e5565b6040516020818303038152906040527f41304fac000000000000000000000000000000000000000000000000000000007bffffffffffffffffffffffffffffffffffffffffffffffffffffffff19166020820180517bffffffffffffffffffffffffffffffffffffffffffffffffffffffff8381831617835250505050611e4c565b50565b60007f01ffc9a7000000000000000000000000000000000000000000000000000000007bffffffffffffffffffffffffffffffffffffffffffffffffffffffff1916827bffffffffffffffffffffffffffffffffffffffffffffffffffffffff1916149050919050565b60008073ffffffffffffffffffffffffffffffffffffffff166002600084815260200190815260200160002060009054906101000a900473ffffffffffffffffffffffffffffffffffffffff1673ffffffffffffffffffffffffffffffffffffffff1614159050919050565b600033905090565b816004600083815260200190815260200160002060006101000a81548173ffffffffffffffffffffffffffffffffffffffff021916908373ffffffffffffffffffffffffffffffffffffffff160217905550808273ffffffffffffffffffffffffffffffffffffffff166114bf8361086a565b73ffffffffffffffffffffffffffffffffffffffff167f8c5be1e5ebec7d5bd14f71427d1e84f3dd0314c0f7b2291e5b200ac8c7c3b92560405160405180910390a45050565b6000611510826113d8565b61154f576040517f08c379a0000000000000000000000000000000000000000000000000000000008152600401611546906132c5565b60405180910390fd5b600061155a8361086a565b90508073ffffffffffffffffffffffffffffffffffffffff168473ffffffffffffffffffffffffffffffffffffffff1614806115c957508373ffffffffffffffffffffffffffffffffffffffff166115b18461052f565b73ffffffffffffffffffffffffffffffffffffffff16145b806115da57506115d98185610fdd565b5b91505092915050565b8273ffffffffffffffffffffffffffffffffffffffff166116038261086a565b73ffffffffffffffffffffffffffffffffffffffff1614611659576040517f08c379a0000000000000000000000000000000000000000000000000000000008152600401611650906133c5565b60405180910390fd5b600073ffffffffffffffffffffffffffffffffffffffff168273ffffffffffffffffffffffffffffffffffffffff1614156116c9576040517f08c379a00000000000000000000000000000000000000000000000000000000081526004016116c090613285565b60405180910390fd5b6116d4838383611e75565b6116df60008261144c565b6001600360008573ffffffffffffffffffffffffffffffffffffffff1673ffffffffffffffffffffffffffffffffffffffff168152602001908152602001600020600082825461172f919061361a565b925050819055506001600360008473ffffffffffffffffffffffffffffffffffffffff1673ffffffffffffffffffffffffffffffffffffffff16815260200190815260200160002060008282546117869190613539565b92505081905550816002600083815260200190815260200160002060006101000a81548173ffffffffffffffffffffffffffffffffffffffff021916908373ffffffffffffffffffffffffffffffffffffffff160217905550808273ffffffffffffffffffffffffffffffffffffffff168473ffffffffffffffffffffffffffffffffffffffff167fddf252ad1be2c89b69c2b068fc378daa952ba7f163c4a11628f55a4df523b3ef60405160405180910390a4505050565b60606000821415611887576040518060400160405280600181526020017f300000000000000000000000000000000000000000000000000000000000000081525090506119e7565b600082905060005b600082146118b95780806118a290613736565b915050600a826118b2919061358f565b915061188f565b60008167ffffffffffffffff8111156118fb577f4e487b7100000000000000000000000000000000000000000000000000000000600052604160045260246000fd5b6040519080825280601f01601f19166020018201604052801561192d5781602001600182028036833780820191505090505b5090505b600085146119e057600182611946919061361a565b9150600a85611955919061377f565b60306119619190613539565b60f81b81838151811061199d577f4e487b7100000000000000000000000000000000000000000000000000000000600052603260045260246000fd5b60200101907effffffffffffffffffffffffffffffffffffffffffffffffffffffffffffff1916908160001a905350600a856119d9919061358f565b9450611931565b8093505050505b919050565b6000816040516020016119ff9190612fd2565b6040516020818303038152906040528051906020012060001c9050919050565b611a2a8484846115e3565b611a3684848484611e7a565b611a75576040517f08c379a0000000000000000000000000000000000000000000000000000000008152600401611a6c90613245565b60405180910390fd5b50505050565b606060405180602001604052806000815250905090565b6060611a9d826113d8565b611adc576040517f08c379a0000000000000000000000000000000000000000000000000000000008152600401611ad3906133e5565b60405180910390fd5b6000611ae6611a7b565b90506000815111611b065760405180602001604052806000815250611b31565b80611b108461183f565b604051602001611b21929190612fe9565b6040516020818303038152906040525b915050919050565b600081600001549050919050565b60606000825190506000811415611b705760405180602001604052806000815250915050611d00565b60006003600283611b819190613539565b611b8b919061358f565b6004611b9791906135c0565b90506000602082611ba89190613539565b67ffffffffffffffff811115611be7577f4e487b7100000000000000000000000000000000000000000000000000000000600052604160045260246000fd5b6040519080825280601f01601f191660200182016040528015611c195781602001600182028036833780820191505090505b50905060006040518060600160405280604081526020016138ff604091399050600181016020830160005b86811015611cbd5760038101905062ffffff818a015116603f8160121c168401518060081b905060ff603f83600c1c1686015116810190508060081b905060ff603f8360061c1686015116810190508060081b905060ff603f831686015116810190508060e01b90508084526004840193505050611c44565b506003860660018114611cd75760028114611ce757611cf2565b613d3d60f01b6002830352611cf2565b603d60f81b60018303525b508484525050819450505050505b919050565b611d1f828260405180602001604052806000815250612011565b5050565b611d2c826113d8565b611d6b576040517f08c379a0000000000000000000000000000000000000000000000000000000008152600401611d6290613345565b60405180910390fd5b80600660008481526020019081526020016000209080519060200190611d9292919061224d565b505050565b611e31838383604051602401611daf93929190613207565b6040516020818303038152906040527fe3849f79000000000000000000000000000000000000000000000000000000007bffffffffffffffffffffffffffffffffffffffffffffffffffffffff19166020820180517bffffffffffffffffffffffffffffffffffffffffffffffffffffffff8381831617835250505050611e4c565b505050565b6001816000016000828254019250508190555050565b60008151905060006a636f6e736f6c652e6c6f679050602083016000808483855afa5050505050565b505050565b6000611e9b8473ffffffffffffffffffffffffffffffffffffffff1661206c565b15612004578373ffffffffffffffffffffffffffffffffffffffff1663150b7a02611ec4611444565b8786866040518563ffffffff1660e01b8152600401611ee69493929190613155565b602060405180830381600087803b158015611f0057600080fd5b505af1925050508015611f3157506040513d601f19601f82011682018060405250810190611f2e9190612591565b60015b611fb4573d8060008114611f61576040519150601f19603f3d011682016040523d82523d6000602084013e611f66565b606091505b50600081511415611fac576040517f08c379a0000000000000000000000000000000000000000000000000000000008152600401611fa390613245565b60405180910390fd5b805181602001fd5b63150b7a0260e01b7bffffffffffffffffffffffffffffffffffffffffffffffffffffffff1916817bffffffffffffffffffffffffffffffffffffffffffffffffffffffff191614915050612009565b600190505b949350505050565b61201b838361207f565b6120286000848484611e7a565b612067576040517f08c379a000000000000000000000000000000000000000000000000000000000815260040161205e90613245565b60405180910390fd5b505050565b600080823b905060008111915050919050565b600073ffffffffffffffffffffffffffffffffffffffff168273ffffffffffffffffffffffffffffffffffffffff1614156120ef576040517f08c379a00000000000000000000000000000000000000000000000000000000081526004016120e690613365565b60405180910390fd5b6120f8816113d8565b15612138576040517f08c379a000000000000000000000000000000000000000000000000000000000815260040161212f90613265565b60405180910390fd5b61214460008383611e75565b6001600360008473ffffffffffffffffffffffffffffffffffffffff1673ffffffffffffffffffffffffffffffffffffffff16815260200190815260200160002060008282546121949190613539565b92505081905550816002600083815260200190815260200160002060006101000a81548173ffffffffffffffffffffffffffffffffffffffff021916908373ffffffffffffffffffffffffffffffffffffffff160217905550808273ffffffffffffffffffffffffffffffffffffffff16600073ffffffffffffffffffffffffffffffffffffffff167fddf252ad1be2c89b69c2b068fc378daa952ba7f163c4a11628f55a4df523b3ef60405160405180910390a45050565b82805461225990613704565b90600052602060002090601f01602090048101928261227b57600085556122c2565b82601f1061229457805160ff19168380011785556122c2565b828001600101855582156122c2579182015b828111156122c15782518255916020019190600101906122a6565b5b5090506122cf91906122d3565b5090565b5b808211156122ec5760008160009055506001016122d4565b5090565b60006123036122fe846134b1565b613480565b90508281526020810184848401111561231b57600080fd5b6123268482856136c2565b509392505050565b60008135905061233d8161387d565b92915050565b60008135905061235281613894565b92915050565b600081359050612367816138ab565b92915050565b60008151905061237c816138ab565b92915050565b600082601f83011261239357600080fd5b81356123a38482602086016122f0565b91505092915050565b6000813590506123bb816138c2565b92915050565b6000602082840312156123d357600080fd5b60006123e18482850161232e565b91505092915050565b600080604083850312156123fd57600080fd5b600061240b8582860161232e565b925050602061241c8582860161232e565b9150509250929050565b60008060006060848603121561243b57600080fd5b60006124498682870161232e565b935050602061245a8682870161232e565b925050604061246b868287016123ac565b9150509250925092565b6000806000806080858703121561248b57600080fd5b60006124998782880161232e565b94505060206124aa8782880161232e565b93505060406124bb878288016123ac565b925050606085013567ffffffffffffffff8111156124d857600080fd5b6124e487828801612382565b91505092959194509250565b6000806040838503121561250357600080fd5b60006125118582860161232e565b925050602061252285828601612343565b9150509250929050565b6000806040838503121561253f57600080fd5b600061254d8582860161232e565b925050602061255e858286016123ac565b9150509250929050565b60006020828403121561257a57600080fd5b600061258884828501612358565b91505092915050565b6000602082840312156125a357600080fd5b60006125b18482850161236d565b91505092915050565b6000602082840312156125cc57600080fd5b60006125da848285016123ac565b91505092915050565b6125ec8161364e565b82525050565b6125fb81613660565b82525050565b600061260c826134f6565b612616818561350c565b93506126268185602086016136d1565b61262f8161386c565b840191505092915050565b600061264582613501565b61264f818561351d565b935061265f8185602086016136d1565b6126688161386c565b840191505092915050565b600061267e82613501565b612688818561352e565b93506126988185602086016136d1565b80840191505092915050565b600081546126b181613704565b6126bb818661352e565b945060018216600081146126d657600181146126e75761271a565b60ff1983168652818601935061271a565b6126f0856134e1565b60005b83811015612712578154818901526001820191506020810190506126f3565b838801955050505b50505092915050565b600061273060328361351d565b91507f4552433732313a207472616e7366657220746f206e6f6e20455243373231526560008301527f63656976657220696d706c656d656e74657200000000000000000000000000006020830152604082019050919050565b6000612796601c8361351d565b91507f4552433732313a20746f6b656e20616c7265616479206d696e746564000000006000830152602082019050919050565b60006127d6600a8361352e565b91507f54484952445f574f5244000000000000000000000000000000000000000000006000830152600a82019050919050565b600061281660248361351d565b91507f4552433732313a207472616e7366657220746f20746865207a65726f2061646460008301527f72657373000000000000000000000000000000000000000000000000000000006020830152604082019050919050565b600061287c60198361351d565b91507f4552433732313a20617070726f766520746f2063616c6c6572000000000000006000830152602082019050919050565b60006128bc60638361352e565b91507f222c20226465736372697074696f6e223a20224120686967686c79206163636c60008301527f61696d656420636f6c6c656374696f6e206f6620737175617265732e222c202260208301527f696d616765223a2022646174613a696d6167652f7376672b786d6c3b6261736560408301527f36342c00000000000000000000000000000000000000000000000000000000006060830152606382019050919050565b600061296e600b8361352e565b91507f5345434f4e445f574f52440000000000000000000000000000000000000000006000830152600b82019050919050565b60006129ae600a8361352e565b91507f466972737420576f7264000000000000000000000000000000000000000000006000830152600a82019050919050565b60006129ee602c8361351d565b91507f4552433732313a206f70657261746f7220717565727920666f72206e6f6e657860008301527f697374656e7420746f6b656e00000000000000000000000000000000000000006020830152604082019050919050565b6000612a54600d8361352e565b91507f3c2f746578743e3c2f7376673e000000000000000000000000000000000000006000830152600d82019050919050565b6000612a9460388361351d565b91507f4552433732313a20617070726f76652063616c6c6572206973206e6f74206f7760008301527f6e6572206e6f7220617070726f76656420666f7220616c6c00000000000000006020830152604082019050919050565b6000612afa602a8361351d565b91507f4552433732313a2062616c616e636520717565727920666f7220746865207a6560008301527f726f2061646472657373000000000000000000000000000000000000000000006020830152604082019050919050565b6000612b6060298361351d565b91507f4552433732313a206f776e657220717565727920666f72206e6f6e657869737460008301527f656e7420746f6b656e00000000000000000000000000000000000000000000006020830152604082019050919050565b6000612bc6602e8361351d565b91507f45524337323155524953746f726167653a2055524920736574206f66206e6f6e60008301527f6578697374656e7420746f6b656e0000000000000000000000000000000000006020830152604082019050919050565b6000612c2c60028361352e565b91507f227d0000000000000000000000000000000000000000000000000000000000006000830152600282019050919050565b6000612c6c60208361351d565b91507f4552433732313a206d696e7420746f20746865207a65726f20616464726573736000830152602082019050919050565b6000612cac60318361351d565b91507f45524337323155524953746f726167653a2055524920717565727920666f722060008301527f6e6f6e6578697374656e7420746f6b656e0000000000000000000000000000006020830152604082019050919050565b6000612d12602c8361351d565b91507f4552433732313a20617070726f76656420717565727920666f72206e6f6e657860008301527f697374656e7420746f6b656e00000000000000000000000000000000000000006020830152604082019050919050565b6000612d7860298361351d565b91507f4552433732313a207472616e73666572206f6620746f6b656e2074686174206960008301527f73206e6f74206f776e00000000000000000000000000000000000000000000006020830152604082019050919050565b6000612dde602f8361351d565b91507f4552433732314d657461646174613a2055524920717565727920666f72206e6f60008301527f6e6578697374656e7420746f6b656e00000000000000000000000000000000006020830152604082019050919050565b6000612e44600a8361352e565b91507f7b226e616d65223a2022000000000000000000000000000000000000000000006000830152600a82019050919050565b6000612e8460218361351d565b91507f4552433732313a20617070726f76616c20746f2063757272656e74206f776e6560008301527f72000000000000000000000000000000000000000000000000000000000000006020830152604082019050919050565b6000612eea601d8361352e565b91507f646174613a6170706c69636174696f6e2f6a736f6e3b6261736536342c0000006000830152601d82019050919050565b6000612f2a60318361351d565b91507f4552433732313a207472616e736665722063616c6c6572206973206e6f74206f60008301527f776e6572206e6f7220617070726f7665640000000000000000000000000000006020830152604082019050919050565b6000612f9060138361351d565b91507f536f7272792c20776520736f6c64206f757421000000000000000000000000006000830152602082019050919050565b612fcc816136b8565b82525050565b6000612fde8284612673565b915081905092915050565b6000612ff58285612673565b91506130018284612673565b91508190509392505050565b60006130198286612673565b91506130258285612673565b91506130318284612673565b9150819050949350505050565b600061304a82856126a4565b91506130568284612673565b915061306182612a47565b91508190509392505050565b6000613078826127c9565b91506130848284612673565b915081905092915050565b600061309a82612961565b91506130a68284612673565b915081905092915050565b60006130bc826129a1565b91506130c88284612673565b915081905092915050565b60006130de82612e37565b91506130ea8285612673565b91506130f5826128af565b91506131018284612673565b915061310c82612c1f565b91508190509392505050565b600061312382612edd565b915061312f8284612673565b915081905092915050565b600060208201905061314f60008301846125e3565b92915050565b600060808201905061316a60008301876125e3565b61317760208301866125e3565b6131846040830185612fc3565b81810360608301526131968184612601565b905095945050505050565b60006040820190506131b660008301856125e3565b6131c36020830184612fc3565b9392505050565b60006020820190506131df60008301846125f2565b92915050565b600060208201905081810360008301526131ff818461263a565b905092915050565b60006060820190508181036000830152613221818661263a565b90506132306020830185612fc3565b61323d60408301846125e3565b949350505050565b6000602082019050818103600083015261325e81612723565b9050919050565b6000602082019050818103600083015261327e81612789565b9050919050565b6000602082019050818103600083015261329e81612809565b9050919050565b600060208201905081810360008301526132be8161286f565b9050919050565b600060208201905081810360008301526132de816129e1565b9050919050565b600060208201905081810360008301526132fe81612a87565b9050919050565b6000602082019050818103600083015261331e81612aed565b9050919050565b6000602082019050818103600083015261333e81612b53565b9050919050565b6000602082019050818103600083015261335e81612bb9565b9050919050565b6000602082019050818103600083015261337e81612c5f565b9050919050565b6000602082019050818103600083015261339e81612c9f565b9050919050565b600060208201905081810360008301526133be81612d05565b9050919050565b600060208201905081810360008301526133de81612d6b565b9050919050565b600060208201905081810360008301526133fe81612dd1565b9050919050565b6000602082019050818103600083015261341e81612e77565b9050919050565b6000602082019050818103600083015261343e81612f1d565b9050919050565b6000602082019050818103600083015261345e81612f83565b9050919050565b600060208201905061347a6000830184612fc3565b92915050565b6000604051905081810181811067ffffffffffffffff821117156134a7576134a661383d565b5b8060405250919050565b600067ffffffffffffffff8211156134cc576134cb61383d565b5b601f19601f8301169050602081019050919050565b60008190508160005260206000209050919050565b600081519050919050565b600081519050919050565b600082825260208201905092915050565b600082825260208201905092915050565b600081905092915050565b6000613544826136b8565b915061354f836136b8565b9250827fffffffffffffffffffffffffffffffffffffffffffffffffffffffffffffffff03821115613584576135836137b0565b5b828201905092915050565b600061359a826136b8565b91506135a5836136b8565b9250826135b5576135b46137df565b5b828204905092915050565b60006135cb826136b8565b91506135d6836136b8565b9250817fffffffffffffffffffffffffffffffffffffffffffffffffffffffffffffffff048311821515161561360f5761360e6137b0565b5b828202905092915050565b6000613625826136b8565b9150613630836136b8565b925082821015613643576136426137b0565b5b828203905092915050565b600061365982613698565b9050919050565b60008115159050919050565b60007fffffffff0000000000000000000000000000000000000000000000000000000082169050919050565b600073ffffffffffffffffffffffffffffffffffffffff82169050919050565b6000819050919050565b82818337600083830152505050565b60005b838110156136ef5780820151818401526020810190506136d4565b838111156136fe576000848401525b50505050565b6000600282049050600182168061371c57607f821691505b602082108114156137305761372f61380e565b5b50919050565b6000613741826136b8565b91507fffffffffffffffffffffffffffffffffffffffffffffffffffffffffffffffff821415613774576137736137b0565b5b600182019050919050565b600061378a826136b8565b9150613795836136b8565b9250826137a5576137a46137df565b5b828206905092915050565b7f4e487b7100000000000000000000000000000000000000000000000000000000600052601160045260246000fd5b7f4e487b7100000000000000000000000000000000000000000000000000000000600052601260045260246000fd5b7f4e487b7100000000000000000000000000000000000000000000000000000000600052602260045260246000fd5b7f4e487b7100000000000000000000000000000000000000000000000000000000600052604160045260246000fd5b6000601f19601f8301169050919050565b6138868161364e565b811461389157600080fd5b50565b61389d81613660565b81146138a857600080fd5b50565b6138b48161366c565b81146138bf57600080fd5b50565b6138cb816136b8565b81146138d657600080fd5b5056fe416e204e465420772f20494420257320686173206265656e206d696e74656420746f2025734142434445464748494a4b4c4d4e4f505152535455565758595a6162636465666768696a6b6c6d6e6f707172737475767778797a303132333435363738392b2f416e204e465420572f20696420257320686173206265656e206d696e74656420746f202573a264697066735822122051677b4c56103dddf361b7d9e5650a06f4e9534a907d4c610e5522c5d3c6a9b164736f6c634300080000333c73766720786d6c6e733d27687474703a2f2f7777772e77332e6f72672f323030302f73766727207072657365727665417370656374526174696f3d27784d696e594d696e206d656574272076696577426f783d273020302033353020333530273e3c7374796c653e2e62617365207b2066696c6c3a2077686974653b20666f6e742d66616d696c793a2073657269663b20666f6e742d73697a653a20323470783b207d3c2f7374796c653e3c726563742077696474683d273130302527206865696768743d2731303025272066696c6c3d27626c61636b27202f3e3c7465787420783d273530252720793d273530252720636c6173733d27626173652720646f6d696e616e742d626173656c696e653d276d6964646c652720746578742d616e63686f723d276d6964646c65273e",
  "linkReferences": {},
  "deployedLinkReferences": {}
}